:08000000803102288731FD2F39
:100E3A002F0096019701980199019A019B010800D8
:100E4A00623031008D008F019101063093009201CA
:100E5A000800803027008E001F308D0040308C0043
:100E6A0024001F08F33904389F00080001302500C8
:100E7A0090008F0191013E308D008C012E00901060
:100E8A00D03025008E00080087311D278731873131
:100E9A006F27873187312527873187312E27873179
:100EAA0087313B27873108007108F3007008F20088
:100EBA00F336F20CF336F20C720827008D00700834
:100ECA000339F2000530F235FF3E031D682F7235F3
:100EDA008C0008002000960197019801FF309100CC
:100EEA00FF3092007F309300FF303E00CE00FF308B
:100EFA00C300FF30B800E501C401B901CF01BA014E
:100F0A00C501D001FF30BB00FF30C600FF30D10061
:100F1A00FF30BC00FF30C700FF30D2000830E800C5
:100F2A000E30A70008008731492787317D30F0004D
:100F3A000030F1008731592787311530F5004B30E1
:100F4A00F400BE30890BA72FF40BA72FF50BA72FA0
:100F5A0000321930F0000030F1008731592787310B
:100F6A001530F5004B30F400BE30890BBA2FF40B64
:100F7A00BA2FF50BBA2F0032BC30F0000030F10066
:100F8A008731592787311530F5004B30F400BE30D0
:100F9A00890BCD2FF40BCD2FF50BCD2F00323F301F
:100FAA00F0000030F1008731592787311530F500FC
:100FBA004B30F400BE30890BE02FF40BE02FF50B19
:100FCA00E02F0032FA30F0000030F1008731592763
:100FDA0087311530F5004B30F400BE30890BF32F02
:100FEA00F40BF32FF50BF32F00329B2F80310228DD
:060FFA0020008731982F52
:020000040001F9
:08000000FF3FFF3FFF3FFF3F00
:0A000E00EC3FFF3F9F3FFF3FFF3F25
:00000001FF
