:08000000803102288431472CF5
:1004A000640080010131890B512A00347008F60084
:1004B0007108F7007208F8000310770D780D20001E
:1004C000A5002508031D692AF001F101F201F301DD
:1004D00008007308F6007408F7007508F8000310A8
:1004E000770D780DA40024080319642A7F30F117D2
:1004F000F201F417F501A001A101A201A301A502D7
:1005000098302407F600A5021830A400A035A10DEC
:10051000A20DA30D75087202031D942A74087102BE
:10052000031D942A73087002031C9D2A7308F002AD
:100530007408F13B7508F23B2014F035F10DF20D13
:10054000A40B862AA51FB02A2508803A973E031CD3
:10055000642AA336A20CA10CA00CA50FA92ABD2ABF
:10056000183025020318642A25080319BD2AA0356E
:10057000A10DA20DA30DA503B42A2308F3002208A0
:10058000F2002108F1002008F00008007030662316
:1005900082310310780D790D2000A5002508031D78
:1005A000D62AF001F101F201F3010800733066234D
:1005B00082310310780D790DA40024080319D12A83
:1005C00070308600803041314131810470304131DA
:1005D000860073307123823186008030870141317B
:1005E000413181047330413186007F307123823183
:1005F000A001A101A201A301A502A0302407F600D9
:10060000A5022030A4007330A035A10DA20DA30DCA
:100610006623823170308600403FFA00413FFB0084
:10062000423FFC00433FFD0079087D02031D222B61
:1006300078087C02031D222B77087B02031D222BE6
:1006400076087A02031C362B7330662382317030B1
:1006500086007608810241317708813B4131780874
:10066000813B41317908813B7D3120147030860017
:10067000870181354131810D4131810D4131810D3C
:10068000A40B032BA51F502B2508803A9F3E031C6B
:10069000D12AA336A20CA10CA00CA50F492B5D2BCF
:1006A000203025020318D12A250803195D2BA03517
:1006B000A10DA20DA30DA503542B2308F3002208BE
:1006C000F2002108F1002008F000080086008701F0
:1006D000403FF600413FF700423FF800433FF9003A
:1006E00008008701413141314131810108004E0844
:1006F0004D044C0403197E2B8030CE064F08C000F9
:100700005008C1005108C2004C08C3004D08C40085
:100710004E08C50092234008CC004108CD00420895
:10072000CE0008004008C6004108C7004208C800C3
:100730000310470D480DCB004308C6004408C7000E
:100740004508C8000310470D480DCA004B0803199F
:10075000B52B4A084B024A080318BD2BC6004B08AC
:10076000C60219304602031CBC2B4308C0004408D3
:10077000C1004508C20008004A08031908004B08D8
:100780004A020318CB2B4B08C6004A08C602193090
:100790004602031808000630C900C21BC917C51B52
:1007A0004917C117C201C417C5014A084B020318F3
:1007B000F02BC335C40DC50DCA034A084B060319F7
:1007C000EB2BC903490807390319EB2BD92BC23688
:1007D000C10CC00CCB0A4B084A0603190A2CE72BA4
:1007E0004B084A0203180A2CC035C10DC20DCB03B9
:1007F0004A084B060319062CC9034908073903198F
:10080000062CF42BC536C40CC30CCA0A4B084A0686
:10081000031D022CC91F152CFF30C006C106C206DD
:10082000C00A0319C10A0319C20A491F1D2C412419
:1008300083310319C40A0319C50AC9014008C30753
:100840004108C43D4208C53DC51F2D2C4124031954
:10085000C40A0319C50AC901C90A4308F0004408BB
:10086000F1004508F2004B08F3004908F400863116
:10087000DF2670082000C0007108C1007208C200A5
:100880000800FF30C306C406C506C30A08005F306F
:100890008400003085000730823150228431B93025
:1008A00084000030850014308231502284312000D1
:1008B000792CF300F1000F30F1057308F200F030ED
:1008C000F20520001714720E0F3977258431971422
:1008D0001A30890B692C0032200097107108772597
:1008E000843197141A30890B732C00322000971032
:1008F0000800A22584313E00B80120001117911391
:10090000333024008E0001309100200092019701C5
:100910002F2584319D2584310130F301F30A002510
:1009200084318830F4009030F5008D25843120002A
:1009300096170630890B9A2C0032200096130C1F54
:100940009F2C24008D018C0120000C1BA42C240062
:100950000C082000E200E30124000D082000E40060
:100960000230E501F301F30A002584314030B5017E
:10097000B601B7004430A6000B30A7003E30A800F7
:100980006408F900F8016208F8076308F93DAF252B
:10099000843178082000A9007908AA007A08AB0001
:1009A000522684312608B8002708B9002808BA0062
:1009B0001D273508DF003608E0003708E1007630F3
:1009C000D2009030D3005F08D4006008D5006108E1
:1009D000D600B930883136208431B930F400003087
:1009E000F5008D25843103302000DE000830DD0065
:1009F0007730890BF92CDD0BF92CDE0BF92C972CB9
:100A0000F400740B0B2D73087F3EBE2784316525DF
:100A100084317608652D02307406031D172D730886
:100A2000BF3EBE278431652584317608652D0330AD
:100A30007406031D232D7308933EBE27843165255C
:100A400084317608652D04307406031D0800730890
:100A5000D33EBE278431652584317608652D00306C
:100A6000772584313430F300F230890B352DF30BC8
:100A7000352D0330652584310D30F300FC30890BB2
:100A80003F2DF30B3F2D0330652584311D30F300DE
:100A90009130890B492DF30B492D0000033065255A
:100AA0008431023065258431023065258431083077
:100AB000652584310030652584310C30652584310D
:100AC0000030652584310630652DF20020001710B6
:100AD00072087725843197140B30F1006230890B4E
:100AE0006F2DF10B6F2D0032200097100800F000E1
:100AF000701C7C2D17157D2D1711F01C812D97155D
:100B0000822D9711701D862D1716872D1712F01D37
:100B10008B2D9716080097120800F701F801E327BC
:100B20008431120003190800E32784310008592496
:100B30008431F70A0319F80A8F2D003065258431B6
:100B40000130652DA7258431832784317A2F2F002A
:100B500096019701980199019A019B010800FB01F8
:100B6000F91FB92DF809F909F80A0319F90AFB0167
:100B7000FB0A7808F0007908F1008E30F201F300EA
:100B80007B08F400DF267008F8007108F90072088D
:100B9000FA0008002000BF006E303F02031C152E33
:100BA0000A30F5006430F0003F08C7268431AF26D4
:100BB0008431CF278D3105258431B7278D31B1257B
:100BC00084316430F5003F08AF268431CF278D3162
:100BD00005258431C8278D31C225843152268431C0
:100BE000F12784310A30F0003F08C7268431CF272F
:100BF0008D310525843121089F278431EA278431EE
:100C0000522684312608B9002708BA002808BB00FC
:100C10003F30A601A701A8003908A9003A08AA0098
:100C20003B08AB0052268431D52F0B303F02031C0A
:100C30003F2E0A30F0003F08C7268431CF278D3180
:100C40000525843121089F2784310A30F5003F08AB
:100C5000AF268431CF278D3105258431B7278D31DB
:100C6000C225843152268431F12784313F30A601D8
:100C7000A701A800EA27843152268431D52F3F30BE
:100C8000A601A701A8003F08CF278D310525843193
:100C9000AD278431A900013FAA00023FAB005226D4
:100CA0008431D52F2608AC002708AD002808AE00F7
:100CB00003102D0D2E0DAF002F08031D602EFC2FED
:100CC0002908AC002A08AD002B08AE0003102D0D3A
:100CD0002E0DB4003408031D6E2EFC2F34087B3E0D
:100CE000AF072808B4002B08B4068030B405FF30E5
:100CF000A717AA17A905AA050730AB01B001B101D2
:100D0000B201B300261C862EDC278431A836A70C3E
:100D1000A60CA935AA0DAB0DB30B822E0930B3007A
:100D2000261C942EDC278431A836A70CA60CB236DC
:100D3000B10CB00CB30B902E3008F0003108F1006C
:100D40003208F2002F08F3003408F400DF267008A0
:100D50002000A6007108A7007208A8000800F6008D
:100D6000F80175080319C52EF701F70AF51BBA2E0D
:100D7000F535B52EF83575087602031CC22E7508B8
:100D8000F6027814F536F70BBA2E78080800F20050
:100D90000830F300F4017208F1000730F136890BD6
:100DA000CE2E74357104F400F23570087402031C01
:100DB000DB2E7008F402F30BCB2E740808007308C6
:100DC0000319E72E720871047004031DEF2EF00161
:100DD000F101F2010800F30AF236F10CF00CFE30DA
:100DE00072050319FD2EEB2EF30AF00A0319F10A1E
:100DF0000319F20AF236F10CF00CFF3072050319F8
:100E00000A2FF42E02307302031C0C2FF303F0356B
:100E1000F10DF20DF11F022F731CF113F33673085D
:100E2000F700F601F5017508F0047608F10477087B
:100E3000F2047408031DF21708003808BB003908D3
:100E4000BC003A08BD0003103C0D3D0DC200420835
:100E5000031D2B2FF82F3508BB003608BC003708C0
:100E6000BD0003103C0D3D0DC3004308031D392F89
:100E7000F82F8930BF01C001C1014307BB00C20286
:100E80003A08C3003708C3068030C3051830B917C5
:100E9000BA01B617B701BE00BF35C00DC10D370886
:100EA0003A02031D592F36083902031D592F350800
:100EB0003802031C622F3508B8023608B93B3708E0
:100EC000BA3B3F14B835B90DBA0DBE0B4C2F3F08D5
:100ED000F0004008F1004108F2004208F300430826
:100EE000F400DF2670082000B5007108B600720813
:100EF000B7000800623031008D008F01910106308B
:100F00009300920108002000960197019801FF309C
:100F10009100920093003E00CE00C300B800E501AE
:100F2000C401B901CF01BA01C501D001BB00C6009F
:100F3000D100BC00C700D2000830E80008008500DE
:100F400020088400273084079030853D003FA600AC
:100F5000013FA700023FA8000800210885002008E3
:100F60008400273084079030853D003F0800210829
:100F7000850020088400423084079034F700770E03
:100F80000F39F5007708F6000F30F60575080800F0
:100F900021088500200884005D3084079034A0007B
:100FA0000330A101A200A30108002608B50027080C
:100FB000B6002808B70008002908B0072A08B13D84
:100FC0002B08B23D08007408770784007508783D47
:100FD000850008003C08A9003D08AA003E08AB00B7
:100FE00008002608BC002708BD002808BE0008002D
:100FF000B501B601B7010800A601A701A8010800C4
:10106C002100B7005430A300F82588313808031943
:10107C00332C253038060319482837088600870199
:10108C003808302CB001B101AC01AD01532821005E
:10109C002C152000D20A0319D30A200065268831AA
:1010AC00303A03194D285A28652688319325883102
:1010BC00031C92282100B001B1010A302000A000CD
:1010CC00A101210031082000A300210030082000DC
:1010DC00A2000525883121082100B100200020083C
:1010EC002100B000200065268831D03ED700FF30AB
:1010FC0003180030D80057082100B007200058080A
:10110C002100B13D2000D20A0319D30A652688318B
:10111C0093258831031863285208840053088500EE
:10112C0012002E3A031DCF2821002D172000D20AC1
:10113C000319D30A2100B501B601200065268831B8
:10114C0093258831031CD62865268831D700D80111
:10115C00210036082000A100210035082000A00045
:10116C000A30A200A3010525883157082007D900B1
:10117C005808213DDA005908D03E2100B500FF3057
:10118C0020005A3D2100B6002000D20A0319D30AD0
:10119C00A3282100B501B6012D16D6282D15DF2860
:1011AC00F8258831003A0319332C663A0319D428F0
:1011BC003A2820000730D70121002D052000D80047
:1011CC00570403198F2B21002D1EEF280630B50074
:1011DC00B601230886008701403FB200413FB300AF
:1011EC00423FB4000330A3073208F0003308F1008B
:1011FC003408F200F301F401F501DD2688310318FF
:10120C0017293208F0003308F1003408F200DA270D
:10121C0088317008B2007108B3007208B400033052
:10122C00AC04AE01AF013408330432040319A9290C
:10123C00B23086008701403F2000D700413FD800E4
:10124C00423FD900433FDA000F30DA36D90CD80CC4
:10125C00D70C890B2B2958082100AF002000570808
:10126C002100AE008230AF01AE07031CAF03FF308C
:10127C00AE07031CAF0303302000A000A101210026
:10128C002F082000A30021002E082000A200052515
:10129C00883121082100AF00200020082100AE0079
:1012AC000A30F600F7012F08F9002E08F8001A256D
:1012BC00883177082100AF007608AE00AF1F6A298D
:1012CC00FF30AE07031CAF032E03FF3A38248831DE
:1012DC00582688318A26210028082000A9002100E0
:1012EC0029082000AA0021002A082000AB00863122
:1012FC005226883126082100A8002000270821004A
:10130C00A900200028082100AA00A72688318030D7
:10131C00F301F4003F30F500DD26883103189B29DA
:10132C00FF30AE07031CAF03A929A7268831203054
:10133C00F301F4004130F500DD268831031CA929A6
:10134C00AE0A0319AF0A360852268831031DB1299B
:10135C000D30210035020318D829210035088531BC
:10136C00CA2588313508C0003608C1003708C200CC
:10137C00210032082000C300210033082000C400E3
:10138C00210034082000C5008331922388314008A5
:10139C002100B200200041082100B30020004208C7
:1013AC002100B40021002F0852268831031DE129A9
:1013BC000A3021002E020318FE29210034083304C0
:1013CC0032040319302A6B268831092788314008EA
:1013DC003F043E043D04031D302A21002F085226F1
:1013EC008831031DFC29023021002E02031C302AF7
:1013FC002100A72688317030F3008930F40040308A
:10140C00F500DD26883103180D2AF7300E2AF83046
:10141C00AE07031CAF032E08382488315826F00081
:10142C003308F1003408F2002808F3002908F4000E
:10143C002A08F50082315622883173082100A70052
:10144C007208A6007108A5007008A400B201B301CF
:10145C00B401642A21006B2688310927883135268E
:10146C008831A4002708FB002608FA002508F9009B
:10147C002408F800E22778082000CC007908CD0079
:10148C007A08CE00210032082000CF00210033085A
:10149C002000D000210034082000D10083317723B4
:1014AC0088314C082100B20020004D082100B30007
:1014BC0020004E082100B400AE01AF01B801B80AFB
:1014CC00A1258831D900013FDA00023FDB00033F40
:1014DC00DC0021002702031D832A20005B08210069
:1014EC002602031D832A20005A0821002502031D11
:1014FC00832A2000590821002402031C8A2A0A305E
:10150C00B80A3806031D662A380883268831350840
:10151C0020005707D900210036082000583DDA007A
:10152C0021002E0820005907DB0021002F08200085
:10153C005A3DDC005B082100B00220005C08210051
:10154C00B13B350836040319AF2AFF30B007031C32
:10155C00B1032C0803390319B72AFF30B007031C59
:10156C00B1032C1DD82A2C0803390319BF2ABA261B
:10157C008831310852268831031DC72A01302100D9
:10158C003002031CF82A21002D268831B007031CD9
:10159C00B103BF2A2100370886002030AE268831DF
:1015AC00031CB103310852268831031DE02A013097
:1015BC00210030020318D02A21002C08033903190A
:1015CC00F82AD3268831F62AA1258831E0258831DE
:1015DC009B278831CA258831652788314426883174
:1015EC008100B70A2100B803380FEA2A2F085226C7
:1015FC008831031D042B013021002E02031C0D2BFE
:10160C0021002D268831AE07031CAF03FC2A2100D4
:10161C00360852268831031D162B0930210035025D
:10162C00031C1B2B083021001D2B21003508B80092
:10163C0083268831B502200058082100B63B3808B3
:10164C0003192E2B370886002E3087018100B70A2C
:10165C0038083824883135082100A00020003608CD
:10166C002100A100200037082100A2002008200042
:10167C00A900210021082000AA0021002208200036
:10168C00AB00210032088A26863152268831260882
:10169C00BD002708BE002808BF0009278831352661
:1016AC008831812BA1258831E02588319B27883111
:1016BC00CA25883165278831442688318100B70ACC
:1016CC00A1258831F000013FF100023FF200033FF9
:1016DC00F30021002708F7002608F6002508F5007E
:1016EC002408F400652788317308A7007208A60047
:1016FC007108A5007008A400B803380F582B3508E2
:10170C00360403193A282D268831B507031CB60375
:10171C00852B210035083604031D9C2B2708260435
:10172C00250424040319B50A0319B60A9526883131
:10173C003608803A20005902031DA82B21003508D9
:10174C00200057020318AE2B21003508B800C62B19
:10175C0021003808832688313608803A2000D900C9
:10176C005808803A5902031DBE2B57082100350238
:10177C000318C62B21003808B500B601B51BB603FB
:10178C002100300831040319D32B2C080339031919
:10179C00D32BFF30B007031CB1032D1FEE2B3608E3
:1017AC00803A2000D70021003108803A20005702EF
:1017BC00031DE32B2100300835020318EB2B21000D
:1017CC003508B0023608B13BEE2B2100B001B10157
:1017DC00952688313108803A20005902031DFA2BD6
:1017EC0021003008200057020318062C210038086D
:1017FC0083268831B002200058082100B13B092C07
:10180C002100B001B1012C1D1B2C2C08033903192C
:10181C00112CBA2688313008310403193A282D26A8
:10182C008831B007031CB103112C300831040319A3
:10183C002A2C370886002030AE268831031CB103D1
:10184C0030083104031D1F2C2C08033903193A28C6
:10185C00D32688318100B70A3A28370886008701D9
:10186C00810108002000BC00BC1F9D2CBC09BC0AD7
:10187C003C08803A123E031C742C772688315A257A
:10188C008831CE2688311A258831B925883105252D
:10189C008731B7278831B12588316430B426883137
:1018AC00F81BF9031A258831B925883105258731AC
:1018BC00C8278831C22586315226883107268831BF
:1018CC005A258831252688310525210887319F27FF
:1018DC008831C126863152268831162ED826883179
:1018EC00031C952C1D2688315A25883125268831D4
:1018FC000525210887319F2788310A30B426883185
:10190C00F81BF9031A258831B9258831052587314B
:10191C00B7278831C225863152268831162E873159
:10192C00CF27883105258731AD278831C82E3C0853
:10193C00803A123E031CD92C772688315A258831DF
:10194C00CE2688311A258831B9258831052588316C
:10195C00A0268831B12588316430B4268831F81B33
:10196C00F9031A258831B9258831052588312108D4
:10197C00850020088400363084079030C2258631DB
:10198C0052268831072688315A25883125268831F8
:10199C0005258831F1258831B1258831C12686315C
:1019AC0052268831162ED8268831031CFB2C1D2676
:1019BC0088315A2588312526883105258831F1252D
:1019CC008831B12588310A30B4268831F81BF903E7
:1019DC001A258831B925883105258831A02688310A
:1019EC00C225863152268831162E8731CF27883171
:1019FC0005258831F1258831853D003FC82EA4018D
:101A0C00A501201C0D2D2208A4072308A53DA235F5
:101A1C00A30DA136A00C20082104031D072D2508B9
:101A2C00A1002408A0000800FB01F71F242DF609D3
:101A3C00F709F60A0319F70AFB01FB0AF91F2D2D0A
:101A4C00F809F909F80A0319F90A0130FB06FC0137
:101A5C00FD017608770403194D2DFA01FA0AF71BDC
:101A6C003A2DF635F70D342DFC35FD0D770879023E
:101A7C00031D422D76087802031C492D7608F802C6
:101A8C007708F93B7C14F736F60CFA0B3A2D7B08E9
:101A9C000319552DFC09FD09FC0A0319FD0A7D08E3
:101AAC00F7007C08F6000800F501F31F642DF2091D
:101ABC00F309F20A0319F30AF501F50AF11F6B2D6C
:101ACC00F009F109F00A0319F10A700871040319FD
:101ADC00862DF401F40AF11B762DF035F10D702DE5
:101AEC0071087302031D7C2D70087202031C822D79
:101AFC007008F2027108F33BF136F00CF40B762D02
:101B0C00750803198E2DF209F309F20A0319F30A69
:101B1C007308F1007208F0000800F1003A30F0018F
:101B2C00710203189F2D30307102031C9F2DF001A0
:101B3C00F00A700C080038082000D7004E30D8018D
:101B4C00D735D80DD735D80D570784009030583D70
:101B5C008500003F0800853D003FA600013FA7001F
:101B6C00023FA800080077082000A1007608A0001A
:101B7C000330A200A3010800853D003FA900013FEE
:101B8C00AA00023FAB0008007308AB007208AA0061
:101B9C007108A9007008A8000A30F000F101F201E8
:101BAC00F3012B08F7002A08F6002908F50028088D
:101BBC00F4000800F000013FF100023FF200033F87
:101BCC00F30021002708F7002608F6002508F50089
:101BDC002408F40008002108850020088400003047
:101BEC008407903420005308D8005208D700D20A3A
:101BFC000319D30A84005808850000082100B80096
:101C0C0008002608B9002708BA002808BB003C08C1
:101C1C00F200F301F21BF3030A30F000F1010800AB
:101C2C002608B5002708B6002808B7000800F200FF
:101C3C00F301F21BF3030A30F000F1010800710804
:101C4C00A1007008A0000330A200A301080037080F
:101C5C008600303087018100FF30B70A0800400849
:101C6C002100A70020003F082100A60020003E080C
:101C7C002100A50020003D08210008007308AB00DE
:101C8C007208AA007108A9007008A800370886001D
:101C9C0087012808303E0800803A2000D7008030A9
:101CAC005702080035082100A80020003608210042
:101CBC00A900200037082100AA00320808005208A9
:101CCC008400530885000008080032082000BD007D
:101CDC00210033082000BE00210034082000BF0082
:101CEC0008000A30F600F7013C08F200F301F21B81
:101CFC00F3036430F000F10108002000D700D80194
:101D0C00D71BD803210008002000A60021003308AF
:101D1C002000A700210034082000A8000800380883
:101D2C002000D700D801D71BD8035808803AD90017
:101D3C002100080021088500200884001B3084073E
:101D4C0090342808F0002908F1002A08F200080055
:101D5C0087018100FF30B70AB0070800F600F701D1
:101D6C003C08F800F9010800370886002D3087017F
:101D7C008100B70A08003908A9003A08AA003B08F4
:101D8C00AB000800B500013FB600023FB7000800E9
:101D9C007108F9007008F8000800370886002D302B
:101DAC00870108003C08803A753E3C080800F21F89
:101DBC00EC2E7008003CF0007108031C710F003C05
:101DCC00F1007208031C720F803CF200F51FFB2E11
:101DDC007308003CF3007408031C740F003CF400FF
:101DEC007508031C750F803CF5008030F206F50673
:101DFC0075087202031D080074087102031D0800A7
:101E0C007308700208005E2788310310420D430DE1
:101E1C00C9004908031D172FBD01BE01BF01C00138
:101E2C0008005E2788311730C336C20CC10C890BF1
:101E3C001A2F4108C400BE17BF013D08C5003E085B
:101E4C00C6003F08C7008E30C801C902C91F3A2F0F
:101E5C004908803A8F3E031C122FC836C70CC60C9B
:101E6C00C50CC90F332F472F183049020318122FF6
:101E7C0049080319472FC535C60DC70DC80DC90331
:101E8C003E2F44080319552FC509C609C709C809AF
:101E9C00C50A0319C60A0319C70A0319C80A480850
:101EAC00C0004708BF004608BE004508BD0008003A
:101EBC003D08C1003E08C2003F08C300080073087B
:101ECC007204710470040319922FF801F80AF31BC1
:101EDC00742FF035F10DF20DF30D6C2F73087702A2
:101EEC00031D822F72087602031D822F7108750262
:101EFC00031D822F70087402031C8C2F7008F402CF
:101F0C007108F53B7208F63B7308F73BF336F20C9D
:101F1C00F10CF00CF80B742F7708F3007608F20034
:101F2C007508F1007408F0000800F801F901FA01D5
:101F3C00FB0173087204710470040319D12FFC01A6
:101F4C00FC0AF31BAE2FF035F10DF20DF30DA62F9D
:101F5C00F835F90DFA0DFB0D73087702031DC02F30
:101F6C0072087602031DC02F71087502031DC02F65
:101F7C0070087402031CCB2F7008F4027108F53B37
:101F8C007208F63B7308F73B7814F336F20CF10C3D
:101F9C00F00CFC0BAE2F7B08F3007A08F2007908EA
:101FAC00F1007808F000080072087104700403193D
:101FBC0008008030F20608008E30FC00FF307B05F4
:101FCC000319EE2FFB36FA0CF90CF80CFC0AE42F73
:101FDC007808F0007908F1007A08F2007C08F30028
:101FEC00F4018631DF267008F8007108F9007208D8
:101FFC00FA000800003480343F340034203441347B
:10200C000034C834423400347A34443440341C3400
:10201C0046345034C33447342434743449349734FC
:10202C0018344B34BC34BE344C346B346E344E34B4
:10203C000334153450347934AD346034F3344934CA
:10204C007134003480343F34CD34CC343D34D73407
:10205C0023343C34123483343A34B734D1343834E6
:10206C00C63427343734383486343534C034D63417
:10207C003334CC342B343234703489343034E73448
:10208C00DB342E34E5343C341E344234A2340D346B
:10209C0001340034003400340A3400340034003489
:1020AC006434003400340034E83403340034003435
:1020BC001034273400340034A03486340134003416
:1020CC00403442340F340034803496349834003425
:1020DC000034E134F53405340034CA349A343B34DA
:1020EC0044346934733474342E3420343D34203405
:1020FC00253430342E3432346634203420342034B9
:10210C002034003455346C34743472346134733488
:0C211C006F346E34693463346F34003467
:020000040001F9
:08000000FF3FFF3FFF3FFF3F00
:0A000E00EC3FFF3F9F3FFF3FFF3F25
:00000001FF
