:04000000803114280F
:100008007E1480312E00161E0A280B2812280C1E7A
:100018000E280F2812288031942080317E10090084
:1000280080311628F501F6017E10200080317128F4
:100038002000960197019801FF309100FF3092004F
:10004800FF309300FF303E00CE00FF30C300DF30AA
:10005800B800E501C4012030B900CF01BA01C501DB
:10006800D001FF30BB00FF30C600FF30D100FF30A9
:10007800BC00FF30C700FF30D2000830E800BF12D4
:10008800BE16BD12AA30F1000030F2008031A52062
:1000980080312E00161608007308740403195528B9
:1000A80056285B2874088A0073080A0080310130DA
:1000B800F5070030F63D7608803AF000803070028F
:1000C800031D682810307502031C6B286C286E28E5
:1000D800F501F6013E00BF12080080318120803111
:1000E8008B170B172000930198013E00CE0175086D
:1000F800200098007B288031142880319D20803191
:1001080080311C20803180318B20803108006230A2
:1001180031008D008F019101063093009201080093
:100128003E00BF1E982899289C2880315020803195
:1001380008002F0096019701980199019A019B01E7
:0E01480008007208F4007108F30008000800B7
:020000040001F9
:08000000FF3FFF3FFF3FFF3F00
:0A000E00EC3FFF3F9F3FFF3FFF3F25
:00000001FF
