:08000000803102288631F52E43
:100DEA002000162FF300F1000F30F1057308F2000E
:100DFA00F030F2051714720E0F39C4278631971492
:100E0A006A30890B062F0032200097107108C42718
:100E1A00863197146A30890B102F00322000971000
:100E2A0008003E00C301200092017E278631DA279E
:100E3A0086310130F301F30A4F2786310030F4007E
:100E4A008830F500DF2786312930FA009630F9001C
:100E5A007F30890B2E2FF90B2E2FFA0B2E2F000025
:100E6A00DA2786310230F301F30A4F2786310B3035
:100E7A00F4008830F500DF2786315230FA002B3033
:100E8A00F9000030890B472FF90B472FFA0B472F30
:100E9A0000321C2FF400740B5A2F73087F3EEF2781
:100EAA008631B32786317608B32F02307406031DC4
:100EBA00662F7308BF3EEF278631B327863176083F
:100ECA00B32F03307406031D722F7308933EEF2766
:100EDA008631B32786317608B32F04307406031D92
:100EEA0008007308D33EEF278631B3278631760888
:100EFA00B32F0030C4278631D030F300CA30890BB3
:100F0A00842FF30B842F0330B32786313430F30058
:100F1A00F230890B8E2FF30B8E2F0330B3278631D5
:100F2A007330F3004830890B982FF30B982F033056
:100F3A00B32786310230B32786310230B327863190
:100F4A000830B32786310030B32786310C30B327F7
:100F5A0086310030B32786310630B32FF2002000E5
:100F6A0017107208C427863197142A30F1008E3080
:100F7A00890BBD2FF10BBD2F200097100800F00040
:100F8A00701CC92F1715CA2F1711F01CCE2F9715D1
:100F9A00CF2F9711701DD32F1716D42F1712F01DAC
:100FAA00D82F97160800971208000030B327863109
:100FBA000130B32FF701F801F9278631120003191E
:100FCA000800F92786310008F7268631F70A03193F
:100FDA00F80AE12FF700770E0F39F5007708F600C7
:100FEA000F30F6057508080074087707840075083D
:100FFA00783D8500080050347234753465346234A3
:10100A00613420344C344334443400344C3469342D
:0C101A006E34653461342034323400340C
:020000040001F9
:08000000FF3FFF3FFF3FFF3F00
:0A000E008C3FFF3F9F3FFF3FFF3F85
:00000001FF
