:0400000080311D2806
:100008007E1480312E000C1C1B28F00A0319F10AFB
:100018007108803AF20080307202031D15281030F2
:100028007002031C1928F001F1012E000C107E103B
:10003800090080311F28F001F1017E1020002428DA
:100048003C2080313E00CE012000930198013E0003
:10005800B801200091168B170B170B102E001614E1
:100068000C1005303D0090007008200098003828DA
:10007800412080315220803149282F009601970174
:10008800980199019A019B010800623031008D00A6
:100098008F0191010630930092010800200096011B
:1000A80097019801F0309100FF30920093003E00D4
:1000B800CE00C300F030B800E501C4011030B9002B
:1000C800CF01BA01C501D001FF30BB00C600D10085
:0C00D800BC00C700D2000830E80008009F
:020000040001F9
:08000000FF3FFF3FFF3FFF3F00
:0A000E00EC3FFF3F9F3FFF3FFF3F25
:00000001FF
