:08000000803102288731F52F41
:100BC400013400342F0096019701980199019A018C
:100BD4009B010800003086310826853101308631BA
:100BE400082685310800623031008D008F019101A3
:100BF40006309300920108008531E4258531863161
:100C04007C2685318531F52585310800F2002000E8
:100C140017107208863139268631200097140B305C
:100C2400F1006230890B142EF10B142E00322000D7
:100C340097100800F801F9012D2E75087807840033
:100C44007608793D850000088631A3268631013077
:100C5400F8070030F93D7508780784007608793D77
:100C640085001200031D372E382E1F2E0800F000B9
:100C7400701C3D2E3E2E412E20001715432E2000C1
:100C84001711F01C462E472E492E97154A2E971100
:100C9400701D4D2E4E2E502E1716512E1712F01D6C
:100CA400542E552E572E9716582E97120800903012
:100CB40020009E0045309F00F201F3016E2EDB30D0
:100CC40020009C002E008C1E682E692E642E8C122F
:100CD4000130F2070030F33D71087302031D742ED6
:100CE40070087202031C772E782E612E20009E015C
:100CF4009F0108002000960197019801FF309100A0
:100D0400FF309200FF309300FF303E00CE00FF30F2
:100D1400C300FF30B800E501C401B901CF01BA0135
:100D2400C501D001FF30BB00FF30C600FF30D10049
:100D3400FF30BC00FF30C700FF30D2000830E800AD
:100D44000800F40074080F39F2007408F039F30055
:100D5400200017147308F1000430F136890BAF2E0C
:100D64007108863139268631200097141A30890B90
:100D7400B92E003220009710720886313926863148
:100D8400200097141A30890BC52E003220009710CA
:100D9400080000308631392686313430F300F230D1
:100DA400890BD22EF30BD22E0330863108268631DE
:100DB4000D30F300FC30890BDD2EF30BDD2E0330F8
:100DC4008631082686311D30F3009130890BE82ED8
:100DD400F30BE82E000003308631082686310230FA
:100DE400863108268631023086310826863108305D
:100DF40086310826863100308631082686310C304B
:100E04008631082686310030863108268631063040
:100E140086310826863108008531FE258731200079
:100E2400920197013E00C301200011103E003810CA
:100E3400200091163E00B812B9168631CB268731B0
:100E44008531EC258731F301F30A0130873180279E
:100E540087311730F5008830F60086311C2687313B
:100E640020000C0E890C0139FA00FB017A08FC0001
:100E74007B08FD007C037D040319412F422F322F90
:100E84007C087D04031D472F482F322F0330FB00BD
:100E94000830FA007730890B4D2FFA0B4D2FFB0BDE
:100EA4004D2F000020008C1E582F592F542F16143C
:100EB4000530F30002308731802787310C30F5008C
:100EC4008830F60086311C2687310530F00000306A
:100ED400F100863159268731200016100530F300C1
:100EE40002308731802787310030F5008830F600E2
:100EF40086311C268731322F80310228F500750394
:100F0400031D852F862F9D2F73087F3EF8007808D8
:100F1400F4000430F436890B8C2F7408F60078083A
:100F24000F39F7007608863108268731770886312D
:100F340008268731F42F02307506031DA22FA32F34
:100F4400BA2F7308BF3EF8007808F4000430F43672
:100F5400890BA92F7408F60078080F39F700760872
:100F64008631082687317708863108268731F42FA1
:100F740003307506031DBF2FC02FD72F7308933E70
:100F8400F8007808F4000430F436890BC62F74088E
:100F9400F60078080F39F70076088631082687317D
:100FA4007708863108268731F42F04307506031D2F
:100FB400DC2FDD2FF42F7308D33EF8007808F400FB
:100FC4000430F436890BE32F7408F60078080F39DF
:100FD400F700760886310826873177088631082697
:100FE4008731F42F08008531E2258731A00085314F
:100FF400E3258731A100200087310E2F5434653456
:1010040072346D3469346E34613464346F34203432
:101014002034003435342034533465346734753423
:101024006E3464346F347334003454346934653446
:0C1034006D3470346F343A3420340034D2
:020000040001F9
:08000000FF3FFF3FFF3FFF3F00
:0A000E00EC3FFF3F9F3FFF3FFF3F25
:00000001FF
