:04000000803114280F
:100008007E1480312E00161E0A280B2812280C1E7A
:100018000E280F2812288031952080317E10090083
:1000280080311628F701F8017E1020008031A628BB
:100038002000960197019801FF309100FF3092004F
:10004800FF309300FF303E00CE00FC30C300FF308D
:10005800B800E5010330C400B901CF01BA01C501F8
:10006800D001FF30BB00FF30C600FF30D100FF30A9
:10007800BC00FF30C700FF30D2000830E8004A104B
:10008800CA104914C9144810C810DC30F5000030F3
:10009800F6008031D6208031DB30F5000030F600E4
:1000A8008031D12080312E001616080072087304A2
:1000B80003195F286028652873088A0072080A00F7
:1000C80080310130F7070030F83D7808803AF400B5
:1000D80080307402031D722810307702031C7528C3
:1000E80076287828F701F8013E004A1008007008C1
:1000F8007104031980288128862871088A007008ED
:100108000A008031FF30F707FF30F83DF81F8D28CF
:100118008E2892280F30F7000030F8003E00CA10F1
:1001280008003E004A1C99289A289D2880315A20A8
:1001380080313E00CA1CA128A228A52880317B2036
:10014800803108008031B62080318B170B172000D2
:10015800930198013E00CE01770820009800B0284E
:10016800803114288031C920803180311C208031B1
:100178008031C02080310800623031008D008F014D
:10018800910106309300920108002F009601970113
:10019800980199019A019B0108007608F1007508F9
:1001A800F00008007608F3007508F200080008005F
:0201B80008003D
:020000040001F9
:08000000FF3FFF3FFF3FFF3F00
:0A000E00EC3FFF3F9F3FFF3FFF3F25
:00000001FF
