:04000000803114280F
:100008007E1480312E00961E0A280B2812288C1E7A
:100018000E280F2812288031442080317E100900D4
:1000280080311628F401F5017E10200080317C28EB
:100038002000960197019801FE309100FF30920050
:10004800FF309300FF303E00CE00FF30C300DE30AB
:10005800B800E501C4012030B900CF01BA01C501DB
:10006800D001FF30BB00FF30C600FF30D100FF30A9
:10007800BC00FF30C700FF30D2000830E80008009D
:100088002E008C12750820009D0074089C007008D2
:100098007104031950285128562871088A007008DD
:1000A8000A00803103102000161C031403185D2871
:1000B8006028200016146228200016100800453019
:1000C80020009F00C2309D00F7309C001D08F300FF
:1000D8001C08F2002E008C129616B530F60000307F
:1000E800F7008031B0208031903020009E00080059
:1000F8008031922080318B170B1720008C1A8528AD
:1001080086288B282B30F400CF30F5008128DB308F
:10011800F4000B30F5008128803114288031A820A4
:10012800803180311C20803180319F2080318031A6
:10013800632080310800623031008D008F01910109
:1001480006309300920108002F009601970198014C
:1001580099019A019B0108007708F1007608F000E0
:040168000800080083
:020000040001F9
:08000000FF3FFF3FFF3FFF3F00
:0A000E00EC3FFF3F9F3FFF3FFF3F25
:00000001FF
