:0400000080311F2804
:100008007E1480312E000D1C0A280B281D28210083
:1000180093130D082000ED0021000C082000EC00CF
:10002800210093171430890B1728210013142E0070
:100038000D107E100900803121282000EA01EB0113
:10004800EC01ED01EE01A03084000030850036306F
:100058008631C52680317E1020008431B42C2000E2
:10006800BB003008C0003108C1003208C2003308A4
:10007800C3003408C4003508C5003608C600370870
:10008800C7004030860000308700473FB800B81BE3
:100098004E2850280130512800302000CA004A0854
:1000A8000319572858287628C009C109C209C30965
:1000B800C409C509C609C709C00A031D7628C10AAB
:1000C800031D7628C20A031D7628C30A031D762855
:1000D800C40A031D7628C50A031D7628C60A031D0F
:1000E8007628C70A20006B08803AB80080303802AA
:1000F800031D802801306A020318832884288A286F
:1001080001302000BC000030BD008F2820006B08A3
:10011800BD006A08BC00210021082000BF002100A2
:1001280020082000BE004A0803199B289C28B028F4
:10013800FF30BE07FF30BF3D4A08031DA428A5288D
:10014800AA282B30B9000030BA00AE282D30B900EB
:100158000030BA003908CA001F30C8000030C90092
:100168002100C1011F29FF302000C807FF30C93D09
:100178000A30A000A101A201A301A401A501A601C2
:10018800A7014008A8004108A9004208AA0043089E
:10019800AB004408AC004508AD004608AE0047086F
:1001A800AF0082316422803120002108F400200849
:1001B800F3008631672680317308303E2000B8008E
:1001C8004808A23E8600870138088100FF30BC0736
:1001D800FF30BD3DFF30BE07FF30BF3D0A30A000F5
:1001E800A101A201A301A401A501A601A70140083C
:1001F800A8004108A9004208AA004308AB00440827
:10020800AC004508AD004608AE004708AF00813194
:100218006321803120002008C0002108C100220885
:10022800C2002308C3002408C4002508C500260806
:10023800C6002708C70020004908803AB800803067
:100248003802031D292901304802031C2C292D29B5
:10025800472920004008410442044304440445045B
:1002680046044704031D39293A29B7283D08803A2E
:10027800B80080303802031D432901303C020318BE
:1002880046294729B72820004A0803194C294D292F
:100298005729FF30C807FF30C93D4808A23E8600ED
:1002A80087014A0881004808A23EFB003F08FD007C
:1002B8003E08FC003B088531462580310800F201E4
:1002C8002030860000308700473FF000F01F6D297E
:1002D8006E298F292000A009A109A209A309A40950
:1002E800A509A609A709A00A031D8D29A10A031DAE
:1002F8008D29A20A031D8D29A30A031D8D29A40A8D
:10030800031D8D29A50A031D8D29A60A031D8D2904
:10031800A70AF201F20A2830860000308700473F1A
:10032800F000F01F98299929BC292000A809A909DB
:10033800AA09AB09AC09AD09AE09AF09A80A031DA2
:10034800B829A90A031DB829AA0A031DB829AB0AA6
:10035800031DB829AC0A031DB829AD0A031DB82925
:10036800AE0A031DB829AF0A0130F0007008F20682
:1003780073308600003087000830F00000301E001F
:10038800F00BC3292000200821042204230424049C
:100398002504260427040319D229D3292F2AF10179
:1003A800F10AE229A035A10DA20DA30DA40DA50DFA
:1003B800A60DA70D0130F0007008F107A71FE52969
:1003C800E629D629F335F40DF50DF60DF70DF80DE0
:1003D800F90DFA0D27082F02031D0C2A26082E02F4
:1003E800031D0C2A25082D02031D0C2A24082C02A3
:1003F800031D0C2A23082B02031D0C2A22082A029B
:10040800031D0C2A21082902031D0C2A2008280292
:10041800031C0F2A102A212A2008A8022108A93B18
:100428002208AA3B2308AB3B2408AC3B2508AD3B7C
:100438002608AE3B2708AF3B7314A736A60CA50CBD
:10044800A40CA30CA20CA10CA00C0130F102031DFA
:100458002E2A2F2AE62972080319332A342A522A07
:10046800F309F409F509F609F709F809F909FA0988
:10047800F30A031D522AF40A031D522AF50A031D22
:10048800522AF60A031D522AF70A031D522AF80AAD
:10049800031D522AF90A031D522AFA0A730820007A
:1004A800A0007408A1007508A2007608A3007708C8
:1004B800A4007808A5007908A6007A08A700080013
:1004C800F2012830860000308700473FF000F01F17
:1004D8006E2A6F2A902A2000A809A909AA09AB093F
:1004E800AC09AD09AE09AF09A80A031D8E2AA90AED
:1004F800031D8E2AAA0A031D8E2AAB0A031D8E2A03
:10050800AC0A031D8E2AAD0A031D8E2AAE0A031DEE
:100518008E2AAF0AF201F20A2030860000308700E6
:10052800473FF000F01F992A9A2AB92A2000A0090B
:10053800A109A209A309A409A509A609A709A00A4E
:10054800031DB92AA10A031DB92AA20A031DB92A43
:10055800A30A031DB92AA40A031DB92AA50A031D63
:10056800B92AA60A031DB92AA70A200020082104CF
:100578002204230424042504260427040319C52A75
:10058800C62A192BF101F10AD52AA035A10DA20D11
:10059800A30DA40DA50DA60DA70D0130F000700840
:1005A800F107A71FD82AD92AC92A27082F02031D0D
:1005B800F72A26082E02031DF72A25082D02031DF7
:1005C800F72A24082C02031DF72A23082B02031DEF
:1005D800F72A22082A02031DF72A21082902031DE7
:1005E800F72A20082802031CFA2AFB2A0B2B2008CA
:1005F800A8022108A93B2208AA3B2308AB3B2408F0
:10060800AC3B2508AD3B2608AE3B2708AF3BA736D9
:10061800A60CA50CA40CA30CA20CA10CA00C0130D8
:10062800F102031D182B192BD92A720803191D2B47
:100638001E2B3C2BA809A909AA09AB09AC09AD09CD
:10064800AE09AF09A80A031D3C2BA90A031D3C2BC0
:10065800AA0A031D3C2BAB0A031D3C2BAC0A031D45
:100668003C2BAD0A031D3C2BAE0A031D3C2BAF0AE5
:1006780020002808A0002908A1002A08A2002B08A9
:10068800A3002C08A4002D08A5002E08A6002F08FA
:10069800A70008002000D9004B0886008701403FCA
:1006A800CD00413FCE004D0884004E088500120061
:1006B800253A031D602B612BD62B4B08860087013A
:1006C8000130810741310318810A2100A001A101ED
:1006D80003100030031801302000EE00FF30EA005C
:1006E800FF30EB004B0886008701403FDA00413FAE
:1006F800DB005A0884005B0885001200643A03197D
:10070800862B872B912B5A0884005B0885001200E2
:10071800693A031D902B912BCC2B4C08860087013E
:1007280001088400850102308107003FCD00013FA8
:10073800CE004D08D1004E08D200890D893B8909A9
:10074800D300D400D500D600D700D8005A08013EFF
:10075800CD0000305B3DCE004B08860087014D0878
:10076800C03F4E08C13F5108B0005208B1005308BD
:10077800B2005408B3005508B4005608B50057082D
:10078800B6005808B7005908803133208331EE2B62
:1007980020004B088600870101308107413103188A
:1007A800810AEE2B4B0886008701403FCD00413F70
:1007B800CE004D0884004E0885000008CF00D00107
:1007C8004F08F0005008F1005908F2008431642401
:1007D8008331CC2B0800F5007503031DF42BF52B92
:1007E8000C2C73087F3EF8007808F4000430F436C7
:1007F800890BFB2B7408F60078080F39F700760888
:100808008631812683317708863181268331632CAE
:1008180002307506031D112C122C292C7308BF3EBB
:10082800F8007808F4000430F436890B182C7408A2
:10083800F60078080F39F70076088631812683316B
:100848007708863181268331632C03307506031DB2
:100858002E2C2F2C462C7308933EF8007808F400B1
:100868000430F436890B352C7408F60078080F39F3
:10087800F70076088631812683317708863181260C
:100888008331632C04307506031D4B2C4C2C632CD0
:100898007308D33EF8007808F4000430F436890B66
:1008A800522C7408F60078080F39F700760886315C
:1008B800812683317708863181268331632C0800AD
:1008C80072080319682C692C6E2C7208031D6D2C94
:1008D8006E2C732C70088631CB268431B32C7208A9
:1008E800083E860087011600010403197C2C7D2C24
:1008F8009B2C7208083E86008701403FF300413F69
:10090800F4007208023E86008701403FF500413F2F
:10091800F6007608803AF7007408803A7702031DDB
:10092800972C7308750203189A2C9B2CB32C720809
:10093800860087017208023E8400850100080107CD
:10094800F300730886008701700881007208023E70
:10095800860087010130810741310318810A0800A8
:100968008631A12684318B170B172E000D10171412
:10097800843021009300940195019601013098007C
:100988009A0101309D0004309E00200092013E0033
:10099800C30120009701210093171430890BD22C32
:1009A800210013148531032584318631B42684311E
:1009B800F301F30A01308331EF23843195302000AD
:1009C800E3008630E4006D08E6006C08E500C230FC
:1009D80086310E268431C23086312D26843102308C
:1009E8002000E9000430E800BA30890BF92CE80B44
:1009F800F92CE90BF92C0000D92C80311F28003084
:100A08008531EE2585313430F300F230890B0A2D1B
:100A1800F30B0A2D03308631812685310D30F30022
:100A2800FC30890B152DF30B152D033086318126EB
:100A380085311D30F3009130890B202DF30B202DCB
:100A480000000330863181268531023086318126C7
:100A580085310230863181268531083086318126FC
:100A6800853100308631812685310C3086318126EA
:100A780085310030863181268531063086318126E0
:100A8800853108002000A900FD1B4B2D4C2D512D50
:100A98007D08A8007C08A700532DA701A801A5017F
:100AA800A601652D2030F0000030F1002000290853
:100AB800F20084316424853101302000A50700301C
:100AC800A63D2608803AA4002808803A2402031D7F
:100AD8006F2D27082502031C722D732D562D20001B
:100AE8002908F8007B088531CA2585310800F400FB
:100AF80074080F39F2007408F039F3002000171455
:100B08007308F1000430F136890B872D710885319F
:100B1800EE258531200097141A30890B912D00326B
:100B28002000971072088531EE2585312000971432
:100B38001A30890B9D2D00322000971008002000E4
:100B4800960197019801FF309100FF309200FF3025
:100B58009300FF303E00CE00FF30C300FF30B800E6
:100B6800E501C401B901CF01BA01C501D001FF30C7
:100B7800BB00FF30C600FF30D100FF30BC00FF30A3
:100B8800C700FF30D2000830E80008002000A300AA
:100B9800A101A201E02D2008F900FA017908F0006E
:100BA8007A08F1007808F200843164248531013034
:100BB8002000A1070030A23D21082307F900790889
:100BC800860087010108A0002008031DEC2DED2DEB
:100BD800CF2D0800F000701CF22DF32DF62D20000B
:100BE8001715F82D20001711F01CFB2DFC2DFE2DDC
:100BF8009715FF2D9711701D022E032E052E17161F
:100C0800062E1712F01D092E0A2E0C2E97160D2EE1
:100C1800971208002100D7006530D6005708D80081
:100C2800DA01DB01E001E10120006408DD0063086E
:100C3800DC00D630DE00D83086314B2686312100E4
:100C48005A0857072000E7006708860087018101D6
:100C58000800F800F601F7013F2E76087807F5003E
:100C6800750886008701010885317B2586310130AA
:100C7800F6070030F73D76087807F5007508860016
:100C880087010108031D492E4A2E312E0800200035
:100C9800E0005D08E2005C08E1005A2E6130CB00FC
:100CA8005E08CC00600883314E238631200061083D
:100CB8008400620885001200031D632E642E522EE4
:100CC800DC01DD0108007408803AF5008030750207
:100CD800031D702E013073020318732E742E802E9C
:100CE8007309F5007409F600F50A0319F60A750880
:100CF800F3007608F400802E0800F2002000171098
:100D080072088531EE258631200097140B30F100EA
:100D18006230890B8D2EF10B8D2E0032200097103A
:100D28000800563461346C346F3472343A342034E9
:100D3800253464342034203400348631BD2686318D
:100D48008531A32586318631AB268631080062308D
:100D580031008D008F019101063093009201080047
:100D680000308631812686310130863181268631F0
:100D780008002F0096019701980199019A019B019B
:100D88000800640080010131890BC62E0034080078
:020000040001F9
:08000000FF3FFF3FFF3FFF3F00
:0A000E00EC3FFF3F9F3FFF3FFF3F25
:00000001FF
