:04000000803114280F
:100008007E1480312E00961E0A280B2812288C1E7A
:100018000E280F2812288031222080317E100900F6
:10002800803116288031CA208031F7008031CB20FA
:100038008031F8007E102000803197282E008C1225
:10004800780820009D0077089C0070087104031947
:100058002E282F28342871088A0070080A00803159
:1000680020000C1B382839284B2898170730F40033
:100078007D30890B3D28F40B3D28000020009813A3
:10008800B930F700FB30F8002E008C12562898176C
:10009800C8300032890B4D28200098133C309C0052
:1000A8002E008C1208002000960197019801FF305D
:1000B8009100FF309200FF3093007F303E00CE0069
:1000C800FF30C300FF30B800E501C401B901CF011A
:1000D800BA01C501D001FF30BB00FF30C600FF30B8
:1000E800D100FF30BC00FF30C700FF30D20008301D
:1000F800E8000800453020009F00C2309D00F7301E
:100108009C007808F3007708F2002E008C129616EF
:10011800CC30F5000030F6008031C52080319030B9
:1001280020009E0008008031A72080318B170B1714
:100138003E00B801CE012000111793133E00391775
:10014800A428803114288031BD2080318031572087
:1001580080318031B420803180317E2080310800A8
:10016800623031008D008F019101063093009201B9
:1001780008002F0096019701980199019A019B01A7
:1001880008007608F1007508F00008001D34FB34FB
:0201980008005D
:020000040001F9
:08000000FF3FFF3FFF3FFF3F00
:0A000E00EC3FFF3F9F3FFF3FFF3F25
:00000001FF
